:1000000000040020E10700008702000087020000D2
:100010008702000087020000870200000000000045
:100020000000000000000000000000008702000047
:100030008702000000000000870200008702000025
:10004000F0B540F2FF7581EA030C0CF0004C15EAA4
:1000500011541DBF15EA1357AC42AF42E5E0BC4155
:10006000C1F31301C3F31303801A994143F48013BE
:1000700004D2641E0018494180185941C90241EA5E
:100080005051B1FBF3F603FB1611A2FB0675D7EB3B
:10009000C020A94102D2761E80185941C90241EA06
:1000A0005051B1FBF3FE03FB1E11A2FB0E75D7EB03
:1000B000C020A94103D2AEF1010E80185941890236
:1000C00041EA9051760546EA8E2EB1FBF3F603FB2A
:1000D0001611A2FB0675D7EB8020A94102D2761E2D
:1000E00080185941C90241EA50514EEA060EB1FB4F
:1000F000F3F603FB1611A2FB0675D7EBC020A9414E
:1001000002D2761E80185941C90241EA5051B1FB12
:10011000F3F703FB1711A2FB0735D3EBC020A9416E
:1001200067F100070CBF004247F0010766F3D527CF
:100130004FEA1E31B80814F5806412DDBD0775F171
:10014000004250EB0E5051EB045111F5801F5CBF83
:1001500041EA0C01F0BD4CF07F6141F0E04100202C
:10016000F0BDBD076D0840EA0E5041F48011D4F196
:100170000104B4F120060ADAC4F120060200E040CE
:1001800001FA06F3E1401843B24015430EE0342C67
:1001900013DCC6F1200445EA40056D0820FA06F29A
:1001A000154321FA06F0A1400D43002175F10042EC
:1001B00050F1000051EB0C01F0BD00205FEA0C0192
:1001C000F0BDCFB992185B41B3FA83F704BFB2FA1E
:1001D00082F6BF190B3FB7F120062FBF02FA06F3D4
:1001E000BB40C7F1200622FA06F638BF3343BA40B7
:1001F0001CB1E419641E33E77F4231F00041B1FACB
:1002000081F404BFB0FA80F6A4190B3CB4F12006C7
:100210002FBF00FA06F1A140C4F1200620FA06F62D
:1002200038BF3143A0403C1B1AE7AC421ABF05EA75
:100230001357AF4212E050EA41061CBF52EA430690
:10024000BFE750EA4107304661461CBF41EA05510D
:10025000F0BD52EA430C08BFC143F0BD00204FF48B
:10026000001616EB410F98BF16EB430F08BF16EBB5
:10027000410F24BFC14305E016EB430F0CBF61469D
:100280004CEA0551F0BDFEE780B56449096851F0BC
:100290008071624A1160C0B200046149086061481F
:1002A000006850F000705F4908600A2000F006F90D
:1002B0005A48006850F0007058490860642000F007
:1002C000FDF801BD80B55749096851F08071554A64
:1002D0001160C0B2000450F080705149086051486C
:1002E000006850F000704F4908600A2000F0E6F8FE
:1002F0004A48006850F00070484908604CF250309D
:1003000000F0DCF801BD80B50200D2B2032A03DAA6
:100310000A00D2B2112A00DB0AE0C0B2012801D1E2
:10032000802000E0C02009180800C0B2FFF7ACFF31
:1003300001BD10B5040008001100C9B2C0B2FFF73A
:10034000E2FF2000C0B2FFF7BDFF10BD10B50400F2
:1003500008001100C9B2C0B2FFF7D5FF03E0207852
:10036000FFF7B0FF641C20780028F8D110BD80B5DD
:100370002D4800685FF0FF302B4908602B4801686A
:100380002B480143294801602A4800F097F82A4881
:10039000006850F48000284908600120FFF774FFCE
:1003A0004FF4FA5000F08AF83820FFF76DFF49F655
:1003B000404000F083F83820FFF766FF49F64040E0
:1003C00000F07CF80820FFF75FFF49F6404000F09E
:1003D00075F80E20FFF758FF164800F06FF806205A
:1003E000FFF752FF49F6404000F068F801BD0F49A1
:1003F000096851F080410D4A1160C0B2012806D150
:100400000E48006850F080400C49086005E00A483A
:10041000006850F080400849086070471C8002E086
:10042000108002E0148002E0188002E0088002E000
:1004300000004040007102000C8002E0048002E0F5
:100440007CB50C001500010089B24FF47A7291FB63
:10045000F2F18DF8001080B24FF47A7190FBF1F256
:1004600001FB1200010089B2642291FBF2F18DF8C8
:10047000011080B2642190FBF1F201FB1200010037
:1004800089B20A2291FBF2F18DF8021080B20A21A2
:1004900090FBF1F201FB12008DF8030000260AE048
:1004A0007219D2B22100C9B26846805D3030C0B244
:1004B000FFF73FFF761C042EF2DB73BD401E0028C1
:1004C000FCD1704739494843401E0028FCD1704791
:1004D00070B510203649086000F078F800F0DCF8BC
:1004E000FFF745FF0120FFF782FF0124012535E0DA
:1004F000B6B2652E2FDB2F480068800880002D499A
:10050000086028E0B6B2482E02DB10202A490860B5
:1005100020000200D2B2691CC9B22848FFF716FFBA
:10052000012000F0DEF880B20A2190FBF1F6E21D16
:10053000D2B2691CC9B2300080B2FFF781FF30002F
:1005400080B23228D4DA1B4800688008800050F05E
:100550000100184908600220FFF7B4FF20000200E4
:10056000D2B228000100C9B21548FFF7EFFE002003
:1005700000F0B7F880B200F0E5F80022114BFFF769
:100580005FFD00F0EDF8060028000200D2B2A11DC8
:10059000C9B2300080B2FFF753FF300080B2372875
:1005A000B0DA102008490860B2E7000040420F00AE
:1005B000088002E000C002E00C8002E004080000B5
:1005C000FC07000000000940048002E02D4800689C
:1005D0004009400150F003002A490860294800689A
:1005E00030F0600050F0200026490860264800687E
:1005F000000A000250F0AA0023490860224800685F
:10060000000A000250F055001F4908601F480068AA
:1006100050F001001D4908601B480068000A0002F4
:1006200050F0AA001849086017480068000A000244
:1006300050F055001449086015480068C0F3802048
:100640000028F9D01148006850F002000F490860F6
:100650000D480068000A000250F0AA000A4908602C
:1006600009480068000A000250F055000649086079
:10067000084800688008800050F0010005490860C3
:10068000704700BF84C01FE08CC01FE080C01FE027
:1006900088C01FE000C11FE02748006830F4400018
:1006A00050F480002449086024480068000A0002D1
:1006B00050F00200214908602048006830F47F4073
:1006C00050F430601D4908601C48006830F0E0605C
:1006D0001A4908601948006850F40010174908606A
:1006E000704716490968090A0902012212FA00F046
:1006F00000F0FF000843114908601148006820F02D
:1007000000400F4908600D48006830F0E06050F08C
:1007100080700A4908600A480068C00F0028FAD0B3
:100720000648006830F0E06004490860044800684A
:10073000C0F3891080B2704704C002E0004003E0BB
:10074000044003E050B1B0FA80F18840C91CC1F503
:100750008461090501EBD0214005704701467047CF
:10076000C1F30A5340F21E42D31A0CDDCA0283F3CE
:10077000070342EA505242F00042DA4002EBE172D3
:1007800082EAE17070476FEAE17203F2E13008B18A
:1007900082F000407047000000F00DF8002801D002
:1007A000AFF30080AFF300800020AFF30080FFF7CD
:1007B0008FFE00F002F80120704700F001B8000041
:1007C0000746384600F002F8FBE7000080B5AFF3BB
:1007D0000080024A11001820ABBEFBE72600020091
:1007E0000548014603B4684680F30988AFF30080EA
:1007F000AFF30080FFF7D0FFA5EDF5FE74656D70D7
:0C0800003A2000006C6576656C3A200020
:04000005000007E10F
:00000001FF
